{"_format":"hh-sol-artifact-1","contractName":"ReservoirLevels","sourceName":"contracts/ReservoirLevels.sol","abi":[{"inputs":[],"stateMutability":"nonpayable","type":"constructor"},{"anonymous":false,"inputs":[{"indexed":true,"internalType":"bytes32","name":"id","type":"bytes32"}],"name":"ChainlinkCancelled","type":"event"},{"anonymous":false,"inputs":[{"indexed":true,"internalType":"bytes32","name":"id","type":"bytes32"}],"name":"ChainlinkFulfilled","type":"event"},{"anonymous":false,"inputs":[{"indexed":true,"internalType":"bytes32","name":"id","type":"bytes32"}],"name":"ChainlinkRequested","type":"event"},{"inputs":[],"name":"count","outputs":[{"internalType":"uint256","name":"","type":"uint256"}],"stateMutability":"view","type":"function"},{"inputs":[{"internalType":"bytes32","name":"_requestId","type":"bytes32"},{"internalType":"uint256","name":"_height","type":"uint256"}],"name":"fulfillOrovilleHeight","outputs":[],"stateMutability":"nonpayable","type":"function"},{"inputs":[{"internalType":"bytes32","name":"_requestId","type":"bytes32"},{"internalType":"uint256","name":"_height","type":"uint256"}],"name":"fulfillOrovilleHistoricalAvgHt","outputs":[],"stateMutability":"nonpayable","type":"function"},{"inputs":[{"internalType":"bytes32","name":"_requestId","type":"bytes32"},{"internalType":"uint256","name":"_height","type":"uint256"}],"name":"fulfillTrinityHeight","outputs":[],"stateMutability":"nonpayable","type":"function"},{"inputs":[{"internalType":"bytes32","name":"_requestId","type":"bytes32"},{"internalType":"uint256","name":"_height","type":"uint256"}],"name":"fulfillTrinityHistoricalAvgHt","outputs":[],"stateMutability":"nonpayable","type":"function"},{"inputs":[],"name":"orovilleHistoricalAvgHeight","outputs":[{"internalType":"uint256","name":"","type":"uint256"}],"stateMutability":"view","type":"function"},{"inputs":[],"name":"orovilleLakeHeight","outputs":[{"internalType":"uint256","name":"","type":"uint256"}],"stateMutability":"view","type":"function"},{"inputs":[],"name":"requestOrovilleHeight","outputs":[{"internalType":"bytes32","name":"requestId","type":"bytes32"}],"stateMutability":"nonpayable","type":"function"},{"inputs":[],"name":"requestOrovilleHistoricalAvgHeight","outputs":[{"internalType":"bytes32","name":"requestId","type":"bytes32"}],"stateMutability":"nonpayable","type":"function"},{"inputs":[],"name":"requestTrinityHeight","outputs":[{"internalType":"bytes32","name":"requestId","type":"bytes32"}],"stateMutability":"nonpayable","type":"function"},{"inputs":[],"name":"requestTrinityHistoricalAvgHeight","outputs":[{"internalType":"bytes32","name":"requestId","type":"bytes32"}],"stateMutability":"nonpayable","type":"function"},{"inputs":[{"internalType":"string","name":"source","type":"string"}],"name":"stringToBytes32","outputs":[{"internalType":"bytes32","name":"result","type":"bytes32"}],"stateMutability":"pure","type":"function"},{"inputs":[],"name":"trinityHistoricalAvgHeight","outputs":[{"internalType":"uint256","name":"","type":"uint256"}],"stateMutability":"view","type":"function"},{"inputs":[],"name":"trinityLakeHeight","outputs":[{"internalType":"uint256","name":"","type":"uint256"}],"stateMutability":"view","type":"function"}],"bytecode":"0x608060405260016004553480156200001657600080fd5b5062000027620000c060201b60201c565b73c57b33452b4f7bb189bb5afae9cc4aba1f7a4fd8600b60006101000a81548173ffffffffffffffffffffffffffffffffffffffff021916908373ffffffffffffffffffffffffffffffffffffffff1602179055507f6435323730643163333131393431643062303862656164323166656137373437600c8190555067016345785d8a0000600d819055506000600a8190555062000248565b6200016673c89bd4e1632d3a43cb03aaad5262cbe4038bc57173ffffffffffffffffffffffffffffffffffffffff166338cc48316040518163ffffffff1660e01b815260040160206040518083038186803b1580156200011f57600080fd5b505afa15801562000134573d6000803e3d6000fd5b505050506040513d601f19601f820116820180604052508101906200015a9190620001c3565b6200016860201b60201c565b565b80600260006101000a81548173ffffffffffffffffffffffffffffffffffffffff021916908373ffffffffffffffffffffffffffffffffffffffff16021790555050565b600081519050620001bd816200022e565b92915050565b600060208284031215620001dc57620001db62000229565b5b6000620001ec84828501620001ac565b91505092915050565b6000620002028262000209565b9050919050565b600073ffffffffffffffffffffffffffffffffffffffff82169050919050565b600080fd5b6200023981620001f5565b81146200024557600080fd5b50565b611f9780620002586000396000f3fe608060405234801561001057600080fd5b50600436106100ea5760003560e01c8063690baee61161008c578063ad05a12111610066578063ad05a12114610213578063cfb5192814610231578063f0e256bd14610261578063f770d0431461027f576100ea565b8063690baee6146101bb578063863ad2b7146101d95780638c3df34e146101f5576100ea565b806336bbc3e8116100c857806336bbc3e814610147578063394d4459146101655780633e6d1d1a146101835780634bf3cf5d1461019f576100ea565b806306661abd146100ef578063167034ec1461010d5780633568e9531461012b575b600080fd5b6100f761029d565b6040516101049190611804565b60405180910390f35b6101156102a3565b6040516101229190611804565b60405180910390f35b61014560048036038101906101409190611548565b6102a9565b005b61014f6103ba565b60405161015c9190611804565b60405180910390f35b61016d6103c0565b60405161017a9190611804565b60405180910390f35b61019d60048036038101906101989190611548565b6103c6565b005b6101b960048036038101906101b49190611548565b6104ef565b005b6101c3610600565b6040516101d091906117a9565b60405180910390f35b6101f360048036038101906101ee9190611548565b61072f565b005b6101fd610840565b60405161020a91906117a9565b60405180910390f35b61021b61096f565b6040516102289190611804565b60405180910390f35b61024b60048036038101906102469190611588565b610975565b60405161025891906117a9565b60405180910390f35b61026961099f565b60405161027691906117a9565b60405180910390f35b610287610ace565b60405161029491906117a9565b60405180910390f35b600a5481565b60065481565b816005600082815260200190815260200160002060009054906101000a900473ffffffffffffffffffffffffffffffffffffffff1673ffffffffffffffffffffffffffffffffffffffff163373ffffffffffffffffffffffffffffffffffffffff161461034b576040517f08c379a0000000000000000000000000000000000000000000000000000000008152600401610342906117e4565b60405180910390fd5b6005600082815260200190815260200160002060006101000a81549073ffffffffffffffffffffffffffffffffffffffff0219169055807f7cc135e0cebb02c3480ae5d74d377283180a2601f8f644edf7987b009316c63a60405160405180910390a281600981905550505050565b60085481565b60075481565b816005600082815260200190815260200160002060009054906101000a900473ffffffffffffffffffffffffffffffffffffffff1673ffffffffffffffffffffffffffffffffffffffff163373ffffffffffffffffffffffffffffffffffffffff1614610468576040517f08c379a000000000000000000000000000000000000000000000000000000000815260040161045f906117e4565b60405180910390fd5b6005600082815260200190815260200160002060006101000a81549073ffffffffffffffffffffffffffffffffffffffff0219169055807f7cc135e0cebb02c3480ae5d74d377283180a2601f8f644edf7987b009316c63a60405160405180910390a281600681905550600a60008154809291906104e590611c1e565b9190505550505050565b816005600082815260200190815260200160002060009054906101000a900473ffffffffffffffffffffffffffffffffffffffff1673ffffffffffffffffffffffffffffffffffffffff163373ffffffffffffffffffffffffffffffffffffffff1614610591576040517f08c379a0000000000000000000000000000000000000000000000000000000008152600401610588906117e4565b60405180910390fd5b6005600082815260200190815260200160002060006101000a81549073ffffffffffffffffffffffffffffffffffffffff0219169055807f7cc135e0cebb02c3480ae5d74d377283180a2601f8f644edf7987b009316c63a60405160405180910390a281600881905550505050565b600080610617600c5430633568e95360e01b610bfd565b905061067b6040518060400160405280600381526020017f6765740000000000000000000000000000000000000000000000000000000000815250604051806080016040528060428152602001611e766042913983610c2e9092919063ffffffff16565b6106fa6040518060400160405280600481526020017f70617468000000000000000000000000000000000000000000000000000000008152506040518060400160405280600681526020017f686569676874000000000000000000000000000000000000000000000000000081525083610c2e9092919063ffffffff16565b610729600b60009054906101000a900473ffffffffffffffffffffffffffffffffffffffff1682600d54610c61565b91505090565b816005600082815260200190815260200160002060009054906101000a900473ffffffffffffffffffffffffffffffffffffffff1673ffffffffffffffffffffffffffffffffffffffff163373ffffffffffffffffffffffffffffffffffffffff16146107d1576040517f08c379a00000000000000000000000000000000000000000000000000000000081526004016107c8906117e4565b60405180910390fd5b6005600082815260200190815260200160002060006101000a81549073ffffffffffffffffffffffffffffffffffffffff0219169055807f7cc135e0cebb02c3480ae5d74d377283180a2601f8f644edf7987b009316c63a60405160405180910390a281600781905550505050565b600080610857600c543063863ad2b760e01b610bfd565b90506108bb6040518060400160405280600381526020017f6765740000000000000000000000000000000000000000000000000000000000815250604051806060016040528060338152602001611f2f6033913983610c2e9092919063ffffffff16565b61093a6040518060400160405280600481526020017f70617468000000000000000000000000000000000000000000000000000000008152506040518060400160405280600681526020017f686569676874000000000000000000000000000000000000000000000000000081525083610c2e9092919063ffffffff16565b610969600b60009054906101000a900473ffffffffffffffffffffffffffffffffffffffff1682600d54610c61565b91505090565b60095481565b600080829050600081511415610991576000801b91505061099a565b60208301519150505b919050565b6000806109b6600c5430634bf3cf5d60e01b610bfd565b9050610a1a6040518060400160405280600381526020017f6765740000000000000000000000000000000000000000000000000000000000815250604051806080016040528060438152602001611eb86043913983610c2e9092919063ffffffff16565b610a996040518060400160405280600481526020017f70617468000000000000000000000000000000000000000000000000000000008152506040518060400160405280600681526020017f686569676874000000000000000000000000000000000000000000000000000081525083610c2e9092919063ffffffff16565b610ac8600b60009054906101000a900473ffffffffffffffffffffffffffffffffffffffff1682600d54610c61565b91505090565b600080610ae5600c5430633e6d1d1a60e01b610bfd565b9050610b496040518060400160405280600381526020017f6765740000000000000000000000000000000000000000000000000000000000815250604051806060016040528060348152602001611efb6034913983610c2e9092919063ffffffff16565b610bc86040518060400160405280600481526020017f70617468000000000000000000000000000000000000000000000000000000008152506040518060400160405280600681526020017f686569676874000000000000000000000000000000000000000000000000000081525083610c2e9092919063ffffffff16565b610bf7600b60009054906101000a900473ffffffffffffffffffffffffffffffffffffffff1682600d54610c61565b91505090565b610c056113e5565b610c0d6113e5565b610c2485858584610c81909392919063ffffffff16565b9150509392505050565b610c45828460800151610d3190919063ffffffff16565b610c5c818460800151610d3190919063ffffffff16565b505050565b6000610c788484846001634042994660e01b610d56565b90509392505050565b610c896113e5565b610c998560800151610100610fbe565b508385600001818152505082856020019073ffffffffffffffffffffffffffffffffffffffff16908173ffffffffffffffffffffffffffffffffffffffff16815250508185604001907bffffffffffffffffffffffffffffffffffffffffffffffffffffffff191690817bffffffffffffffffffffffffffffffffffffffffffffffffffffffff191681525050849050949350505050565b610d3e8260038351611028565b610d51818361116d90919063ffffffff16565b505050565b600030600454604051602001610d6d9291906116ba565b604051602081830303815290604052805190602001209050600454856060018181525050856005600083815260200190815260200160002060006101000a81548173ffffffffffffffffffffffffffffffffffffffff021916908373ffffffffffffffffffffffffffffffffffffffff160217905550807fb5e6e01e79f91267dc17b4e6314d5d4d03593d2ceee0fbb452b750bd70ea5af960405160405180910390a2600082600080886000015189602001518a604001518b606001518a8d6080015160000151604051602401610e4b9897969594939291906116e6565b604051602081830303815290604052907bffffffffffffffffffffffffffffffffffffffffffffffffffffffff19166020820180517bffffffffffffffffffffffffffffffffffffffffffffffffffffffff83818316178352505050509050600260009054906101000a900473ffffffffffffffffffffffffffffffffffffffff1673ffffffffffffffffffffffffffffffffffffffff16634000aea08887846040518463ffffffff1660e01b8152600401610f099392919061176b565b602060405180830381600087803b158015610f2357600080fd5b505af1158015610f37573d6000803e3d6000fd5b505050506040513d601f19601f82011682018060405250810190610f5b919061151b565b610f9a576040517f08c379a0000000000000000000000000000000000000000000000000000000008152600401610f91906117c4565b60405180910390fd5b600160046000828254610fad91906118a2565b925050819055505095945050505050565b610fc6611452565b6000602083610fd59190611c95565b1461100157602082610fe79190611c95565b6020610ff39190611ac3565b82610ffe91906118a2565b91505b81836020018181525050604051808452600081528281016020016040525082905092915050565b601781116110555761104f8160058460ff16901b60ff16178461118f90919063ffffffff16565b50611168565b60ff81116110975761107a601860058460ff16901b178461118f90919063ffffffff16565b50611091816001856111af9092919063ffffffff16565b50611167565b61ffff81116110da576110bd601960058460ff16901b178461118f90919063ffffffff16565b506110d4816002856111af9092919063ffffffff16565b50611166565b63ffffffff811161111f57611102601a60058460ff16901b178461118f90919063ffffffff16565b50611119816004856111af9092919063ffffffff16565b50611165565b67ffffffffffffffff81116111645761114b601b60058460ff16901b178461118f90919063ffffffff16565b50611162816008856111af9092919063ffffffff16565b505b5b5b5b5b505050565b611175611452565b611187838460000151518485516111d1565b905092915050565b611197611452565b6111a783846000015151846112c0565b905092915050565b6111b7611452565b6111c8848560000151518585611317565b90509392505050565b6111d9611452565b82518211156111e757600080fd5b846020015182856111f891906118a2565b111561122d5761122c85600261121d8860200151888761121891906118a2565b6113a5565b6112279190611a69565b6113c1565b5b60008086518051876020830101935080888701111561124c5787860182525b60208701925050505b60208410611293578051825260208261126e91906118a2565b915060208161127d91906118a2565b905060208461128c9190611ac3565b9350611255565b60006001856020036101000a03905080198251168184511681811785525050508692505050949350505050565b6112c8611452565b836020015183106112ee576112ed84600286602001516112e89190611a69565b6113c1565b5b835180516020858301018481538186141561130a576001820183525b5050508390509392505050565b61131f611452565b8460200151848361133091906118a2565b111561135857611357856002868561134891906118a2565b6113529190611a69565b6113c1565b5b600060018361010061136a919061194b565b6113749190611ac3565b905085518386820101858319825116178152815185880111156113975784870182525b505085915050949350505050565b6000818311156113b7578290506113bb565b8190505b92915050565b6000826000015190506113d48383610fbe565b506113df838261116d565b50505050565b6040518060a0016040528060008019168152602001600073ffffffffffffffffffffffffffffffffffffffff16815260200160007bffffffffffffffffffffffffffffffffffffffffffffffffffffffff191681526020016000815260200161144c611452565b81525090565b604051806040016040528060608152602001600081525090565b600061147f61147a84611844565b61181f565b90508281526020810184848401111561149b5761149a611d58565b5b6114a6848285611bab565b509392505050565b6000815190506114bd81611e30565b92915050565b6000813590506114d281611e47565b92915050565b600082601f8301126114ed576114ec611d53565b5b81356114fd84826020860161146c565b91505092915050565b60008135905061151581611e5e565b92915050565b60006020828403121561153157611530611d62565b5b600061153f848285016114ae565b91505092915050565b6000806040838503121561155f5761155e611d62565b5b600061156d858286016114c3565b925050602061157e85828601611506565b9150509250929050565b60006020828403121561159e5761159d611d62565b5b600082013567ffffffffffffffff8111156115bc576115bb611d5d565b5b6115c8848285016114d8565b91505092915050565b6115da81611af7565b82525050565b6115e981611b15565b82525050565b6115f881611b1f565b82525050565b600061160982611875565b6116138185611880565b9350611623818560208601611bba565b61162c81611d67565b840191505092915050565b61164861164382611b75565b611c67565b82525050565b600061165b602383611891565b915061166682611d92565b604082019050919050565b600061167e602883611891565b915061168982611de1565b604082019050919050565b61169d81611b6b565b82525050565b6116b46116af82611b6b565b611c8b565b82525050565b60006116c68285611637565b6014820191506116d682846116a3565b6020820191508190509392505050565b6000610100820190506116fc600083018b6115d1565b611709602083018a611694565b61171660408301896115e0565b61172360608301886115d1565b61173060808301876115ef565b61173d60a0830186611694565b61174a60c0830185611694565b81810360e083015261175c81846115fe565b90509998505050505050505050565b600060608201905061178060008301866115d1565b61178d6020830185611694565b818103604083015261179f81846115fe565b9050949350505050565b60006020820190506117be60008301846115e0565b92915050565b600060208201905081810360008301526117dd8161164e565b9050919050565b600060208201905081810360008301526117fd81611671565b9050919050565b60006020820190506118196000830184611694565b92915050565b600061182961183a565b90506118358282611bed565b919050565b6000604051905090565b600067ffffffffffffffff82111561185f5761185e611d24565b5b61186882611d67565b9050602081019050919050565b600081519050919050565b600082825260208201905092915050565b600082825260208201905092915050565b60006118ad82611b6b565b91506118b883611b6b565b9250827fffffffffffffffffffffffffffffffffffffffffffffffffffffffffffffffff038211156118ed576118ec611cc6565b5b828201905092915050565b6000808291508390505b60018511156119425780860481111561191e5761191d611cc6565b5b600185161561192d5780820291505b808102905061193b85611d85565b9450611902565b94509492505050565b600061195682611b6b565b915061196183611b6b565b925061198e7fffffffffffffffffffffffffffffffffffffffffffffffffffffffffffffffff8484611996565b905092915050565b6000826119a65760019050611a62565b816119b45760009050611a62565b81600181146119ca57600281146119d457611a03565b6001915050611a62565b60ff8411156119e6576119e5611cc6565b5b8360020a9150848211156119fd576119fc611cc6565b5b50611a62565b5060208310610133831016604e8410600b8410161715611a385782820a905083811115611a3357611a32611cc6565b5b611a62565b611a4584848460016118f8565b92509050818404811115611a5c57611a5b611cc6565b5b81810290505b9392505050565b6000611a7482611b6b565b9150611a7f83611b6b565b9250817fffffffffffffffffffffffffffffffffffffffffffffffffffffffffffffffff0483118215151615611ab857611ab7611cc6565b5b828202905092915050565b6000611ace82611b6b565b9150611ad983611b6b565b925082821015611aec57611aeb611cc6565b5b828203905092915050565b6000611b0282611b4b565b9050919050565b60008115159050919050565b6000819050919050565b60007fffffffff0000000000000000000000000000000000000000000000000000000082169050919050565b600073ffffffffffffffffffffffffffffffffffffffff82169050919050565b6000819050919050565b6000611b8082611b87565b9050919050565b6000611b9282611b99565b9050919050565b6000611ba482611b4b565b9050919050565b82818337600083830152505050565b60005b83811015611bd8578082015181840152602081019050611bbd565b83811115611be7576000848401525b50505050565b611bf682611d67565b810181811067ffffffffffffffff82111715611c1557611c14611d24565b5b80604052505050565b6000611c2982611b6b565b91507fffffffffffffffffffffffffffffffffffffffffffffffffffffffffffffffff821415611c5c57611c5b611cc6565b5b600182019050919050565b6000611c7282611c79565b9050919050565b6000611c8482611d78565b9050919050565b6000819050919050565b6000611ca082611b6b565b9150611cab83611b6b565b925082611cbb57611cba611cf5565b5b828206905092915050565b7f4e487b7100000000000000000000000000000000000000000000000000000000600052601160045260246000fd5b7f4e487b7100000000000000000000000000000000000000000000000000000000600052601260045260246000fd5b7f4e487b7100000000000000000000000000000000000000000000000000000000600052604160045260246000fd5b600080fd5b600080fd5b600080fd5b600080fd5b6000601f19601f8301169050919050565b60008160601b9050919050565b60008160011c9050919050565b7f756e61626c6520746f207472616e73666572416e6443616c6c20746f206f726160008201527f636c650000000000000000000000000000000000000000000000000000000000602082015250565b7f536f75726365206d75737420626520746865206f7261636c65206f662074686560008201527f2072657175657374000000000000000000000000000000000000000000000000602082015250565b611e3981611b09565b8114611e4457600080fd5b50565b611e5081611b15565b8114611e5b57600080fd5b50565b611e6781611b6b565b8114611e7257600080fd5b5056fe68747470733a2f2f77617465722d6c6576656c732d6170692e6865726f6b756170702e636f6d2f7472696e6974795f6c616b655f686973746f726963616c5f61766768747470733a2f2f77617465722d6c6576656c732d6170692e6865726f6b756170702e636f6d2f6f726f76696c6c655f6c616b655f686973746f726963616c5f61766768747470733a2f2f77617465722d6c6576656c732d6170692e6865726f6b756170702e636f6d2f6f726f76696c6c655f6c616b6568747470733a2f2f77617465722d6c6576656c732d6170692e6865726f6b756170702e636f6d2f7472696e6974795f6c616b65a26469706673582212208577277f9d9561f36e2de041b9caf034abf975ceaa6d688e6a5ecd71722911d064736f6c63430008070033","linkReferences":{},"deployedLinkReferences":{}}