{"_format":"hh-sol-artifact-1","contractName":"ReservoirLevels","sourceName":"contracts/ReservoirLevels.sol","abi":[{"inputs":[],"stateMutability":"nonpayable","type":"constructor"},{"anonymous":false,"inputs":[{"indexed":true,"internalType":"bytes32","name":"id","type":"bytes32"}],"name":"ChainlinkCancelled","type":"event"},{"anonymous":false,"inputs":[{"indexed":true,"internalType":"bytes32","name":"id","type":"bytes32"}],"name":"ChainlinkFulfilled","type":"event"},{"anonymous":false,"inputs":[{"indexed":true,"internalType":"bytes32","name":"id","type":"bytes32"}],"name":"ChainlinkRequested","type":"event"},{"inputs":[{"internalType":"bytes32","name":"_requestId","type":"bytes32"},{"internalType":"uint256","name":"_height","type":"uint256"}],"name":"fulfill","outputs":[],"stateMutability":"nonpayable","type":"function"},{"inputs":[],"name":"lastReq","outputs":[{"internalType":"string","name":"","type":"string"}],"stateMutability":"view","type":"function"},{"inputs":[],"name":"orovilleLakeHeight","outputs":[{"internalType":"uint256","name":"","type":"uint256"}],"stateMutability":"view","type":"function"},{"inputs":[{"internalType":"string","name":"lakeName","type":"string"}],"name":"requestHeightData","outputs":[{"internalType":"bytes32","name":"requestId","type":"bytes32"}],"stateMutability":"nonpayable","type":"function"},{"inputs":[{"internalType":"string","name":"source","type":"string"}],"name":"stringToBytes32","outputs":[{"internalType":"bytes32","name":"result","type":"bytes32"}],"stateMutability":"pure","type":"function"},{"inputs":[],"name":"trinityLakeHeight","outputs":[{"internalType":"uint256","name":"","type":"uint256"}],"stateMutability":"view","type":"function"}],"bytecode":"0x608060405260016004553480156200001657600080fd5b50620000276200010660201b60201c565b73c57b33452b4f7bb189bb5afae9cc4aba1f7a4fd8600960006101000a81548173ffffffffffffffffffffffffffffffffffffffff021916908373ffffffffffffffffffffffffffffffffffffffff1602179055507f6435323730643163333131393431643062303862656164323166656137373437600a8190555067016345785d8a0000600b819055506040518060400160405280600781526020017f7472696e6974790000000000000000000000000000000000000000000000000081525060089080519060200190620000ff929190620001f2565b50620003a3565b620001ac73c89bd4e1632d3a43cb03aaad5262cbe4038bc57173ffffffffffffffffffffffffffffffffffffffff166338cc48316040518163ffffffff1660e01b815260040160206040518083038186803b1580156200016557600080fd5b505afa1580156200017a573d6000803e3d6000fd5b505050506040513d601f19601f82011682018060405250810190620001a09190620002b9565b620001ae60201b60201c565b565b80600260006101000a81548173ffffffffffffffffffffffffffffffffffffffff021916908373ffffffffffffffffffffffffffffffffffffffff16021790555050565b82805462000200906200031f565b90600052602060002090601f01602090048101928262000224576000855562000270565b82601f106200023f57805160ff191683800117855562000270565b8280016001018555821562000270579182015b828111156200026f57825182559160200191906001019062000252565b5b5090506200027f919062000283565b5090565b5b808211156200029e57600081600090555060010162000284565b5090565b600081519050620002b38162000389565b92915050565b600060208284031215620002d257620002d162000384565b5b6000620002e284828501620002a2565b91505092915050565b6000620002f882620002ff565b9050919050565b600073ffffffffffffffffffffffffffffffffffffffff82169050919050565b600060028204905060018216806200033857607f821691505b602082108114156200034f576200034e62000355565b5b50919050565b7f4e487b7100000000000000000000000000000000000000000000000000000000600052602260045260246000fd5b600080fd5b6200039481620002eb565b8114620003a057600080fd5b50565b611aed80620003b36000396000f3fe608060405234801561001057600080fd5b50600436106100625760003560e01c8063167034ec14610067578063394d4459146100855780634357855e146100a3578063a19f6456146100bf578063cfb51928146100dd578063fe3d02b31461010d575b600080fd5b61006f61013d565b60405161007c919061138b565b60405180910390f35b61008d610143565b60405161009a919061138b565b60405180910390f35b6100bd60048036038101906100b89190610f30565b610149565b005b6100c7610352565b6040516100d49190611329565b60405180910390f35b6100f760048036038101906100f29190610f70565b6103e0565b604051610104919061130e565b60405180910390f35b61012760048036038101906101229190610f70565b61040a565b604051610134919061130e565b60405180910390f35b60065481565b60075481565b816005600082815260200190815260200160002060009054906101000a900473ffffffffffffffffffffffffffffffffffffffff1673ffffffffffffffffffffffffffffffffffffffff163373ffffffffffffffffffffffffffffffffffffffff16146101eb576040517f08c379a00000000000000000000000000000000000000000000000000000000081526004016101e29061136b565b60405180910390fd5b6005600082815260200190815260200160002060006101000a81549073ffffffffffffffffffffffffffffffffffffffff0219169055807f7cc135e0cebb02c3480ae5d74d377283180a2601f8f644edf7987b009316c63a60405160405180910390a260405160200161025d90611214565b60405160208183030381529060405280519060200120600860405160200161028591906111fd565b6040516020818303038152906040528051906020012014156102f957816006819055506040518060400160405280600881526020017f6f726f76696c6c65000000000000000000000000000000000000000000000000815250600890805190602001906102f3929190610d2a565b5061034d565b816007819055506040518060400160405280600781526020017f7472696e697479000000000000000000000000000000000000000000000000008152506008908051906020019061034b929190610d2a565b505b505050565b6008805461035f9061179f565b80601f016020809104026020016040519081016040528092919081815260200182805461038b9061179f565b80156103d85780601f106103ad576101008083540402835291602001916103d8565b820191906000526020600020905b8154815290600101906020018083116103bb57829003601f168201915b505050505081565b6000808290506000815114156103fc576000801b915050610405565b60208301519150505b919050565b600080610421600a5430634357855e60e01b610542565b905061048c6040518060400160405280600381526020017f67657400000000000000000000000000000000000000000000000000000000008152508460405160200161046d9190611229565b604051602081830303815290604052836105739092919063ffffffff16565b61050b6040518060400160405280600481526020017f70617468000000000000000000000000000000000000000000000000000000008152506040518060400160405280600681526020017f6865696768740000000000000000000000000000000000000000000000000000815250836105739092919063ffffffff16565b61053a600960009054906101000a900473ffffffffffffffffffffffffffffffffffffffff1682600b546105a6565b915050919050565b61054a610db0565b610552610db0565b610569858585846105c6909392919063ffffffff16565b9150509392505050565b61058a82846080015161067690919063ffffffff16565b6105a181846080015161067690919063ffffffff16565b505050565b60006105bd8484846001634042994660e01b61069b565b90509392505050565b6105ce610db0565b6105de8560800151610100610903565b508385600001818152505082856020019073ffffffffffffffffffffffffffffffffffffffff16908173ffffffffffffffffffffffffffffffffffffffff16815250508185604001907bffffffffffffffffffffffffffffffffffffffffffffffffffffffff191690817bffffffffffffffffffffffffffffffffffffffffffffffffffffffff191681525050849050949350505050565b610683826003835161096d565b6106968183610ab290919063ffffffff16565b505050565b6000306004546040516020016106b29291906111d1565b604051602081830303815290604052805190602001209050600454856060018181525050856005600083815260200190815260200160002060006101000a81548173ffffffffffffffffffffffffffffffffffffffff021916908373ffffffffffffffffffffffffffffffffffffffff160217905550807fb5e6e01e79f91267dc17b4e6314d5d4d03593d2ceee0fbb452b750bd70ea5af960405160405180910390a2600082600080886000015189602001518a604001518b606001518a8d608001516000015160405160240161079098979695949392919061124b565b604051602081830303815290604052907bffffffffffffffffffffffffffffffffffffffffffffffffffffffff19166020820180517bffffffffffffffffffffffffffffffffffffffffffffffffffffffff83818316178352505050509050600260009054906101000a900473ffffffffffffffffffffffffffffffffffffffff1673ffffffffffffffffffffffffffffffffffffffff16634000aea08887846040518463ffffffff1660e01b815260040161084e939291906112d0565b602060405180830381600087803b15801561086857600080fd5b505af115801561087c573d6000803e3d6000fd5b505050506040513d601f19601f820116820180604052508101906108a09190610f03565b6108df576040517f08c379a00000000000000000000000000000000000000000000000000000000081526004016108d69061134b565b60405180910390fd5b6001600460008282546108f29190611454565b925050819055505095945050505050565b61090b610e1d565b600060208361091a9190611830565b146109465760208261092c9190611830565b60206109389190611675565b826109439190611454565b91505b81836020018181525050604051808452600081528281016020016040525082905092915050565b6017811161099a576109948160058460ff16901b60ff161784610ad490919063ffffffff16565b50610aad565b60ff81116109dc576109bf601860058460ff16901b1784610ad490919063ffffffff16565b506109d681600185610af49092919063ffffffff16565b50610aac565b61ffff8111610a1f57610a02601960058460ff16901b1784610ad490919063ffffffff16565b50610a1981600285610af49092919063ffffffff16565b50610aab565b63ffffffff8111610a6457610a47601a60058460ff16901b1784610ad490919063ffffffff16565b50610a5e81600485610af49092919063ffffffff16565b50610aaa565b67ffffffffffffffff8111610aa957610a90601b60058460ff16901b1784610ad490919063ffffffff16565b50610aa781600885610af49092919063ffffffff16565b505b5b5b5b5b505050565b610aba610e1d565b610acc83846000015151848551610b16565b905092915050565b610adc610e1d565b610aec8384600001515184610c05565b905092915050565b610afc610e1d565b610b0d848560000151518585610c5c565b90509392505050565b610b1e610e1d565b8251821115610b2c57600080fd5b84602001518285610b3d9190611454565b1115610b7257610b71856002610b6288602001518887610b5d9190611454565b610cea565b610b6c919061161b565b610d06565b5b600080865180518760208301019350808887011115610b915787860182525b60208701925050505b60208410610bd85780518252602082610bb39190611454565b9150602081610bc29190611454565b9050602084610bd19190611675565b9350610b9a565b60006001856020036101000a03905080198251168184511681811785525050508692505050949350505050565b610c0d610e1d565b83602001518310610c3357610c328460028660200151610c2d919061161b565b610d06565b5b8351805160208583010184815381861415610c4f576001820183525b5050508390509392505050565b610c64610e1d565b84602001518483610c759190611454565b1115610c9d57610c9c8560028685610c8d9190611454565b610c97919061161b565b610d06565b5b6000600183610100610caf91906114fd565b610cb99190611675565b90508551838682010185831982511617815281518588011115610cdc5784870182525b505085915050949350505050565b600081831115610cfc57829050610d00565b8190505b92915050565b600082600001519050610d198383610903565b50610d248382610ab2565b50505050565b828054610d369061179f565b90600052602060002090601f016020900481019282610d585760008555610d9f565b82601f10610d7157805160ff1916838001178555610d9f565b82800160010185558215610d9f579182015b82811115610d9e578251825591602001919060010190610d83565b5b509050610dac9190610e37565b5090565b6040518060a0016040528060008019168152602001600073ffffffffffffffffffffffffffffffffffffffff16815260200160007bffffffffffffffffffffffffffffffffffffffffffffffffffffffff1916815260200160008152602001610e17610e1d565b81525090565b604051806040016040528060608152602001600081525090565b5b80821115610e50576000816000905550600101610e38565b5090565b6000610e67610e62846113cb565b6113a6565b905082815260208101848484011115610e8357610e82611922565b5b610e8e84828561175d565b509392505050565b600081519050610ea581611a72565b92915050565b600081359050610eba81611a89565b92915050565b600082601f830112610ed557610ed461191d565b5b8135610ee5848260208601610e54565b91505092915050565b600081359050610efd81611aa0565b92915050565b600060208284031215610f1957610f1861192c565b5b6000610f2784828501610e96565b91505092915050565b60008060408385031215610f4757610f4661192c565b5b6000610f5585828601610eab565b9250506020610f6685828601610eee565b9150509250929050565b600060208284031215610f8657610f8561192c565b5b600082013567ffffffffffffffff811115610fa457610fa3611927565b5b610fb084828501610ec0565b91505092915050565b610fc2816116a9565b82525050565b610fd1816116c7565b82525050565b610fe0816116d1565b82525050565b6000610ff182611411565b610ffb8185611427565b935061100b81856020860161176c565b61101481611931565b840191505092915050565b61103061102b82611727565b611802565b82525050565b60006110418261141c565b61104b8185611438565b935061105b81856020860161176c565b61106481611931565b840191505092915050565b600061107a8261141c565b6110848185611449565b935061109481856020860161176c565b80840191505092915050565b600081546110ad8161179f565b6110b78186611449565b945060018216600081146110d257600181146110e357611116565b60ff19831686528186019350611116565b6110ec856113fc565b60005b8381101561110e578154818901526001820191506020810190506110ef565b838801955050505b50505092915050565b600061112c600783611449565b91506111378261195c565b600782019050919050565b600061114f602383611438565b915061115a82611985565b604082019050919050565b6000611172602783611449565b915061117d826119d4565b602782019050919050565b6000611195602883611438565b91506111a082611a23565b604082019050919050565b6111b48161171d565b82525050565b6111cb6111c68261171d565b611826565b82525050565b60006111dd828561101f565b6014820191506111ed82846111ba565b6020820191508190509392505050565b600061120982846110a0565b915081905092915050565b600061121f8261111f565b9150819050919050565b600061123482611165565b9150611240828461106f565b915081905092915050565b600061010082019050611261600083018b610fb9565b61126e602083018a6111ab565b61127b6040830189610fc8565b6112886060830188610fb9565b6112956080830187610fd7565b6112a260a08301866111ab565b6112af60c08301856111ab565b81810360e08301526112c18184610fe6565b90509998505050505050505050565b60006060820190506112e56000830186610fb9565b6112f260208301856111ab565b81810360408301526113048184610fe6565b9050949350505050565b60006020820190506113236000830184610fc8565b92915050565b600060208201905081810360008301526113438184611036565b905092915050565b6000602082019050818103600083015261136481611142565b9050919050565b6000602082019050818103600083015261138481611188565b9050919050565b60006020820190506113a060008301846111ab565b92915050565b60006113b06113c1565b90506113bc82826117d1565b919050565b6000604051905090565b600067ffffffffffffffff8211156113e6576113e56118ee565b5b6113ef82611931565b9050602081019050919050565b60008190508160005260206000209050919050565b600081519050919050565b600081519050919050565b600082825260208201905092915050565b600082825260208201905092915050565b600081905092915050565b600061145f8261171d565b915061146a8361171d565b9250827fffffffffffffffffffffffffffffffffffffffffffffffffffffffffffffffff0382111561149f5761149e611861565b5b828201905092915050565b6000808291508390505b60018511156114f4578086048111156114d0576114cf611861565b5b60018516156114df5780820291505b80810290506114ed8561194f565b94506114b4565b94509492505050565b60006115088261171d565b91506115138361171d565b92506115407fffffffffffffffffffffffffffffffffffffffffffffffffffffffffffffffff8484611548565b905092915050565b6000826115585760019050611614565b816115665760009050611614565b816001811461157c5760028114611586576115b5565b6001915050611614565b60ff84111561159857611597611861565b5b8360020a9150848211156115af576115ae611861565b5b50611614565b5060208310610133831016604e8410600b84101617156115ea5782820a9050838111156115e5576115e4611861565b5b611614565b6115f784848460016114aa565b9250905081840481111561160e5761160d611861565b5b81810290505b9392505050565b60006116268261171d565b91506116318361171d565b9250817fffffffffffffffffffffffffffffffffffffffffffffffffffffffffffffffff048311821515161561166a57611669611861565b5b828202905092915050565b60006116808261171d565b915061168b8361171d565b92508282101561169e5761169d611861565b5b828203905092915050565b60006116b4826116fd565b9050919050565b60008115159050919050565b6000819050919050565b60007fffffffff0000000000000000000000000000000000000000000000000000000082169050919050565b600073ffffffffffffffffffffffffffffffffffffffff82169050919050565b6000819050919050565b600061173282611739565b9050919050565b60006117448261174b565b9050919050565b6000611756826116fd565b9050919050565b82818337600083830152505050565b60005b8381101561178a57808201518184015260208101905061176f565b83811115611799576000848401525b50505050565b600060028204905060018216806117b757607f821691505b602082108114156117cb576117ca6118bf565b5b50919050565b6117da82611931565b810181811067ffffffffffffffff821117156117f9576117f86118ee565b5b80604052505050565b600061180d82611814565b9050919050565b600061181f82611942565b9050919050565b6000819050919050565b600061183b8261171d565b91506118468361171d565b92508261185657611855611890565b5b828206905092915050565b7f4e487b7100000000000000000000000000000000000000000000000000000000600052601160045260246000fd5b7f4e487b7100000000000000000000000000000000000000000000000000000000600052601260045260246000fd5b7f4e487b7100000000000000000000000000000000000000000000000000000000600052602260045260246000fd5b7f4e487b7100000000000000000000000000000000000000000000000000000000600052604160045260246000fd5b600080fd5b600080fd5b600080fd5b600080fd5b6000601f19601f8301169050919050565b60008160601b9050919050565b60008160011c9050919050565b7f7472696e69747900000000000000000000000000000000000000000000000000600082015250565b7f756e61626c6520746f207472616e73666572416e6443616c6c20746f206f726160008201527f636c650000000000000000000000000000000000000000000000000000000000602082015250565b7f68747470733a2f2f77617465722d6c6576656c732d6170692e6865726f6b756160008201527f70702e636f6d2f00000000000000000000000000000000000000000000000000602082015250565b7f536f75726365206d75737420626520746865206f7261636c65206f662074686560008201527f2072657175657374000000000000000000000000000000000000000000000000602082015250565b611a7b816116bb565b8114611a8657600080fd5b50565b611a92816116c7565b8114611a9d57600080fd5b50565b611aa98161171d565b8114611ab457600080fd5b5056fea26469706673582212201a53bb98645efd7d0e7e26cd6b53d6b26e5a84bd077235e6d52c89d9f8d1162164736f6c63430008070033","linkReferences":{},"deployedLinkReferences":{}}